:1000000012C02AC029C028C027C026C025C024C0CD
:1000100023C022C021C020C01FC01FC01DC01CC0E3
:100020001BC01AC019C011241FBECFEDCDBF10E0F8
:10003000A0E6B0E0E1E8F2E002C005900D92AA3738
:10004000B107D9F720E0AAE7B0E001C01D92AD38B2
:10005000B207E1F7BAD000C1D3CF1F920F920FB60B
:100060000F9211248F9381E0809360008F910F9005
:100070000FBE0F901F901895F8948FE381BB82E814
:1000800086BF81E089BF92E090BF83BF78940895D6
:10009000CF92EF92FF920F931F93CF93DF9390E055
:1000A000FC01E359FF4F0081FC01E959FF4F10812A
:1000B0009C01220F331FF901E658FF4F60817181C7
:1000C0006F5F7F4FFC01EF59FF4FE081F0E0EE0FD3
:1000D000FF1FEE0FFF1FA02FB0E0E12EF12CED016E
:1000E000CE0DDF1DEC0FFD1FE617F70710F460E0E3
:1000F00070E0F901E658FF4F71836083EC01CA5745
:10010000DF4F6A177B0760F4FC01ED58FF4F208139
:1001100030E040E050E080E090E063D0202F15C058
:100120006A1B7B0B6E157F05B8F4FC01ED58FF4F81
:10013000C0802C2D30E040E050E0C701861B970BBB
:10014000BC0180E090E04DD0212F30E040E050E055
:1001500061D02F77288301C01882DF91CF911F9142
:100160000F91FF90EF90CF900895E6E8F0E020E047
:1001700030E090E041E050E06191681738F4BA0156
:10018000022E01C0660F0A94EAF7962B2F5F3F4FAD
:100190002630310589F792BB0895CF93DF93C09144
:1001A0008C00CF77C0938C00CC2341F081E08C0F82
:1001B00080938C008C2FDF91CF91D7CFD0E08D2F03
:1001C00067DFDF5FD630D9F7F1CF56DF809160006F
:1001D000811101C0FFCFF894E0DF109260007894A5
:1001E000F5CFEE27FF27AA27BB2708C0A20FB31F12
:1001F000E41FF51F220F331F441F551F9695879547
:100200007795679598F37040A9F7009799F7BD0126
:10021000CF010895A1E21A2EAA1BBB1BFD010DC040
:10022000AA1FBB1FEE1FFF1FA217B307E407F507A6
:1002300020F0A21BB30BE40BF50B661F771F881F82
:10024000991F1A9469F760957095809590959B0118
:0C025000AC01BD01CF010895F894FFCF70
:10028100010000000000000000000000007F4F3F5F
:0A0291001F04127F7F7F7F7F7F0034
:00000001FF
